{
  "contractName": "Activity",
  "abi": [
    {
      "constant": true,
      "inputs": [],
      "name": "allowed_to_view",
      "outputs": [
        {
          "name": "",
          "type": "address"
        }
      ],
      "payable": false,
      "stateMutability": "view",
      "type": "function",
      "signature": "0x0e01f272"
    },
    {
      "constant": true,
      "inputs": [],
      "name": "owner",
      "outputs": [
        {
          "name": "",
          "type": "address"
        }
      ],
      "payable": false,
      "stateMutability": "view",
      "type": "function",
      "signature": "0x8da5cb5b"
    },
    {
      "constant": true,
      "inputs": [],
      "name": "signedBy",
      "outputs": [
        {
          "name": "",
          "type": "address"
        }
      ],
      "payable": false,
      "stateMutability": "view",
      "type": "function",
      "signature": "0xf6554c29"
    },
    {
      "inputs": [],
      "payable": false,
      "stateMutability": "nonpayable",
      "type": "constructor",
      "signature": "constructor"
    },
    {
      "anonymous": false,
      "inputs": [
        {
          "indexed": false,
          "name": "accessor",
          "type": "address"
        },
        {
          "indexed": false,
          "name": "name",
          "type": "string"
        },
        {
          "indexed": false,
          "name": "timestamp",
          "type": "uint256"
        }
      ],
      "name": "DataViewed",
      "type": "event",
      "signature": "0xc3c95e6c7171e54021b6f89ee7c13bc57a25c43b31cd86e4bc10f9415ac7070c"
    },
    {
      "anonymous": false,
      "inputs": [
        {
          "indexed": false,
          "name": "signedBy",
          "type": "address"
        },
        {
          "indexed": false,
          "name": "name",
          "type": "string"
        },
        {
          "indexed": false,
          "name": "timestamp",
          "type": "uint256"
        }
      ],
      "name": "ActivitySigned",
      "type": "event",
      "signature": "0x6e3e6a6ee77679e0f7586f8ace716f85529261e58b7b00d3f1aa4265e56431b2"
    },
    {
      "constant": false,
      "inputs": [],
      "name": "viewData",
      "outputs": [
        {
          "name": "",
          "type": "address"
        },
        {
          "name": "",
          "type": "string"
        }
      ],
      "payable": false,
      "stateMutability": "nonpayable",
      "type": "function",
      "signature": "0x7ba09759"
    },
    {
      "constant": false,
      "inputs": [],
      "name": "signActivity",
      "outputs": [],
      "payable": false,
      "stateMutability": "nonpayable",
      "type": "function",
      "signature": "0x87a64c4c"
    }
  ],
  "bytecode": "0x608060405234801561001057600080fd5b50336000806101000a81548173ffffffffffffffffffffffffffffffffffffffff021916908373ffffffffffffffffffffffffffffffffffffffff16021790555033600260006101000a81548173ffffffffffffffffffffffffffffffffffffffff021916908373ffffffffffffffffffffffffffffffffffffffff1602179055507f6e3e6a6ee77679e0f7586f8ace716f85529261e58b7b00d3f1aa4265e56431b23342604051808373ffffffffffffffffffffffffffffffffffffffff1673ffffffffffffffffffffffffffffffffffffffff16815260200180602001838152602001828103825260088152602001807f4261736963466974000000000000000000000000000000000000000000000000815250602001935050505060405180910390a17fc3c95e6c7171e54021b6f89ee7c13bc57a25c43b31cd86e4bc10f9415ac7070c3342604051808373ffffffffffffffffffffffffffffffffffffffff1673ffffffffffffffffffffffffffffffffffffffff16815260200180602001838152602001828103825260088152602001807f456d706c6f796572000000000000000000000000000000000000000000000000815250602001935050505060405180910390a16105ef806101e96000396000f3fe60806040526004361061006d576000357c0100000000000000000000000000000000000000000000000000000000900463ffffffff1680630e01f272146100725780637ba09759146100c957806387a64c4c1461018c5780638da5cb5b146101a3578063f6554c29146101fa575b600080fd5b34801561007e57600080fd5b50610087610251565b604051808273ffffffffffffffffffffffffffffffffffffffff1673ffffffffffffffffffffffffffffffffffffffff16815260200191505060405180910390f35b3480156100d557600080fd5b506100de610277565b604051808373ffffffffffffffffffffffffffffffffffffffff1673ffffffffffffffffffffffffffffffffffffffff16815260200180602001828103825283818151815260200191508051906020019080838360005b83811015610150578082015181840152602081019050610135565b50505050905090810190601f16801561017d5780820380516001836020036101000a031916815260200191505b50935050505060405180910390f35b34801561019857600080fd5b506101a1610491565b005b3480156101af57600080fd5b506101b8610578565b604051808273ffffffffffffffffffffffffffffffffffffffff1673ffffffffffffffffffffffffffffffffffffffff16815260200191505060405180910390f35b34801561020657600080fd5b5061020f61059d565b604051808273ffffffffffffffffffffffffffffffffffffffff1673ffffffffffffffffffffffffffffffffffffffff16815260200191505060405180910390f35b600260009054906101000a900473ffffffffffffffffffffffffffffffffffffffff1681565b60006060600260009054906101000a900473ffffffffffffffffffffffffffffffffffffffff1673ffffffffffffffffffffffffffffffffffffffff163373ffffffffffffffffffffffffffffffffffffffff16141515610366576040517f08c379a00000000000000000000000000000000000000000000000000000000081526004018080602001828103825260268152602001807f596f7520617265206e6f7420616c6c6f77656420746f2076696577207468697381526020017f20646174612e000000000000000000000000000000000000000000000000000081525060400191505060405180910390fd5b7fc3c95e6c7171e54021b6f89ee7c13bc57a25c43b31cd86e4bc10f9415ac7070c3342604051808373ffffffffffffffffffffffffffffffffffffffff1673ffffffffffffffffffffffffffffffffffffffff16815260200180602001838152602001828103825260088152602001807f4261736963466974000000000000000000000000000000000000000000000000815250602001935050505060405180910390a16000809054906101000a900473ffffffffffffffffffffffffffffffffffffffff16606060405190810160405280602a81526020017f2077656e7420746f207468652067796d2066726f6d203220746f2034206f6e2081526020017f5765646e65736461792100000000000000000000000000000000000000000000815250915091509091565b33600160006101000a81548173ffffffffffffffffffffffffffffffffffffffff021916908373ffffffffffffffffffffffffffffffffffffffff1602179055507f6e3e6a6ee77679e0f7586f8ace716f85529261e58b7b00d3f1aa4265e56431b23342604051808373ffffffffffffffffffffffffffffffffffffffff1673ffffffffffffffffffffffffffffffffffffffff16815260200180602001838152602001828103825260088152602001807f4261736963466974000000000000000000000000000000000000000000000000815250602001935050505060405180910390a1565b6000809054906101000a900473ffffffffffffffffffffffffffffffffffffffff1681565b600160009054906101000a900473ffffffffffffffffffffffffffffffffffffffff168156fea165627a7a72305820e58d28dfb7384b0dfd706e4df74385669dc756d06929cee8b63da0e8ae6035a00029",
  "source": "pragma solidity >=0.4.21 <0.6.0;\n\ncontract Activity {\n  \n  address public owner;\n  address public signedBy;\n  address public allowed_to_view;\n\n\n  event DataViewed(address accessor, string name, uint timestamp); // When data is read\n  event ActivitySigned(address signedBy, string name, uint timestamp); //When an activity is signed\n\n  modifier onlyAllowed() {\n      require(msg.sender == allowed_to_view, \n      \"You are not allowed to view this data.\");\n      _;\n  }\n\n  modifier onlyOwner() {\n      require(msg.sender == owner, \n      \"Only owner is allowed to view this data.\");\n      _;\n  }\n\n  constructor() public {\n    owner = msg.sender;\n    allowed_to_view = msg.sender;\n    emit ActivitySigned(msg.sender, \"BasicFit\", now);\n    emit DataViewed(msg.sender, \"Employer\", now);\n  }\n   \n  function viewData() public onlyAllowed returns(address,string memory) {\n    emit DataViewed(msg.sender, \"BasicFit\", now);\n    return (owner, \" went to the gym from 2 to 4 on Wednesday!\");\n  }\n  \n  function signActivity() public {\n    signedBy = msg.sender;\n    emit ActivitySigned(msg.sender, \"BasicFit\", now);\n  }\n\n}",
  "sourcePath": "C:/Projects/purplepension/purplepension-backend/contracts/Activity.sol",
  "compiler": {
    "name": "solc",
    "version": "0.5.0+commit.1d4f565a.Emscripten.clang"
  },
  "schemaVersion": "3.0.6",
  "updatedAt": "2019-04-14T02:06:52.919Z",
  "devdoc": {
    "methods": {}
  },
  "userdoc": {
    "methods": {}
  }
}