{
  "contractName": "Activity",
  "abi": [
    {
      "constant": true,
      "inputs": [],
      "name": "allowed_to_view",
      "outputs": [
        {
          "name": "",
          "type": "address"
        }
      ],
      "payable": false,
      "stateMutability": "view",
      "type": "function",
      "signature": "0x0e01f272"
    },
    {
      "constant": true,
      "inputs": [],
      "name": "owner",
      "outputs": [
        {
          "name": "",
          "type": "address"
        }
      ],
      "payable": false,
      "stateMutability": "view",
      "type": "function",
      "signature": "0x8da5cb5b"
    },
    {
      "constant": true,
      "inputs": [],
      "name": "signedBy",
      "outputs": [
        {
          "name": "",
          "type": "address"
        }
      ],
      "payable": false,
      "stateMutability": "view",
      "type": "function",
      "signature": "0xf6554c29"
    },
    {
      "inputs": [],
      "payable": false,
      "stateMutability": "nonpayable",
      "type": "constructor",
      "signature": "constructor"
    },
    {
      "anonymous": false,
      "inputs": [
        {
          "indexed": false,
          "name": "accessor",
          "type": "address"
        },
        {
          "indexed": false,
          "name": "name",
          "type": "bytes32"
        },
        {
          "indexed": false,
          "name": "timestamp",
          "type": "uint256"
        }
      ],
      "name": "DataViewed",
      "type": "event",
      "signature": "0x65df29b625a09f7935e2f90c24fb3c74ba4add9b8742007ba1fa8b24df70b14b"
    },
    {
      "anonymous": false,
      "inputs": [
        {
          "indexed": false,
          "name": "signedBy",
          "type": "address"
        },
        {
          "indexed": false,
          "name": "name",
          "type": "string"
        },
        {
          "indexed": false,
          "name": "timestamp",
          "type": "uint256"
        }
      ],
      "name": "ActivitySigned",
      "type": "event",
      "signature": "0x6e3e6a6ee77679e0f7586f8ace716f85529261e58b7b00d3f1aa4265e56431b2"
    },
    {
      "constant": false,
      "inputs": [],
      "name": "viewData",
      "outputs": [
        {
          "name": "",
          "type": "address"
        },
        {
          "name": "",
          "type": "string"
        }
      ],
      "payable": false,
      "stateMutability": "nonpayable",
      "type": "function",
      "signature": "0x7ba09759"
    },
    {
      "constant": true,
      "inputs": [
        {
          "name": "a",
          "type": "address"
        }
      ],
      "name": "toBytes",
      "outputs": [
        {
          "name": "",
          "type": "bytes"
        }
      ],
      "payable": false,
      "stateMutability": "pure",
      "type": "function",
      "signature": "0x593b79fe"
    },
    {
      "constant": false,
      "inputs": [],
      "name": "signActivity",
      "outputs": [],
      "payable": false,
      "stateMutability": "nonpayable",
      "type": "function",
      "signature": "0x87a64c4c"
    },
    {
      "constant": true,
      "inputs": [
        {
          "name": "message",
          "type": "bytes32"
        },
        {
          "name": "r",
          "type": "bytes32"
        },
        {
          "name": "s",
          "type": "bytes32"
        },
        {
          "name": "v",
          "type": "uint8"
        }
      ],
      "name": "validateSignature",
      "outputs": [
        {
          "name": "",
          "type": "address"
        }
      ],
      "payable": false,
      "stateMutability": "pure",
      "type": "function",
      "signature": "0x956e6571"
    }
  ],
  "bytecode": "0x608060405234801561001057600080fd5b50336000806101000a81548173ffffffffffffffffffffffffffffffffffffffff021916908373ffffffffffffffffffffffffffffffffffffffff16021790555033600260006101000a81548173ffffffffffffffffffffffffffffffffffffffff021916908373ffffffffffffffffffffffffffffffffffffffff1602179055507f6e3e6a6ee77679e0f7586f8ace716f85529261e58b7b00d3f1aa4265e56431b23342604051808373ffffffffffffffffffffffffffffffffffffffff1673ffffffffffffffffffffffffffffffffffffffff16815260200180602001838152602001828103825260088152602001807f4261736963466974000000000000000000000000000000000000000000000000815250602001935050505060405180910390a16108ed806101456000396000f3fe608060405260043610610083576000357c0100000000000000000000000000000000000000000000000000000000900463ffffffff1680630e01f27214610088578063593b79fe146100df5780637ba09759146101a957806387a64c4c1461026c5780638da5cb5b14610283578063956e6571146102da578063f6554c2914610376575b600080fd5b34801561009457600080fd5b5061009d6103cd565b604051808273ffffffffffffffffffffffffffffffffffffffff1673ffffffffffffffffffffffffffffffffffffffff16815260200191505060405180910390f35b3480156100eb57600080fd5b5061012e6004803603602081101561010257600080fd5b81019080803573ffffffffffffffffffffffffffffffffffffffff1690602001909291905050506103f3565b6040518080602001828103825283818151815260200191508051906020019080838360005b8381101561016e578082015181840152602081019050610153565b50505050905090810190601f16801561019b5780820380516001836020036101000a031916815260200191505b509250505060405180910390f35b3480156101b557600080fd5b506101be610457565b604051808373ffffffffffffffffffffffffffffffffffffffff1673ffffffffffffffffffffffffffffffffffffffff16815260200180602001828103825283818151815260200191508051906020019080838360005b83811015610230578082015181840152602081019050610215565b50505050905090810190601f16801561025d5780820380516001836020036101000a031916815260200191505b50935050505060405180910390f35b34801561027857600080fd5b50610281610660565b005b34801561028f57600080fd5b50610298610747565b604051808273ffffffffffffffffffffffffffffffffffffffff1673ffffffffffffffffffffffffffffffffffffffff16815260200191505060405180910390f35b3480156102e657600080fd5b50610334600480360360808110156102fd57600080fd5b81019080803590602001909291908035906020019092919080359060200190929190803560ff16906020019092919050505061076c565b604051808273ffffffffffffffffffffffffffffffffffffffff1673ffffffffffffffffffffffffffffffffffffffff16815260200191505060405180910390f35b34801561038257600080fd5b5061038b61089b565b604051808273ffffffffffffffffffffffffffffffffffffffff1673ffffffffffffffffffffffffffffffffffffffff16815260200191505060405180910390f35b600260009054906101000a900473ffffffffffffffffffffffffffffffffffffffff1681565b606081604051602001808273ffffffffffffffffffffffffffffffffffffffff1673ffffffffffffffffffffffffffffffffffffffff166c010000000000000000000000000281526014019150506040516020818303038152906040529050919050565b60006060600260009054906101000a900473ffffffffffffffffffffffffffffffffffffffff1673ffffffffffffffffffffffffffffffffffffffff163373ffffffffffffffffffffffffffffffffffffffff16141515610546576040517f08c379a00000000000000000000000000000000000000000000000000000000081526004018080602001828103825260268152602001807f596f7520617265206e6f7420616c6c6f77656420746f2076696577207468697381526020017f20646174612e000000000000000000000000000000000000000000000000000081525060400191505060405180910390fd5b7f65df29b625a09f7935e2f90c24fb3c74ba4add9b8742007ba1fa8b24df70b14b3342604051808373ffffffffffffffffffffffffffffffffffffffff1673ffffffffffffffffffffffffffffffffffffffff168152602001807f42617369634669740000000000000000000000000000000000000000000000008152506020018281526020019250505060405180910390a16000809054906101000a900473ffffffffffffffffffffffffffffffffffffffff16606060405190810160405280602a81526020017f2077656e7420746f207468652067796d2066726f6d203220746f2034206f6e2081526020017f5765646e65736461792100000000000000000000000000000000000000000000815250915091509091565b33600160006101000a81548173ffffffffffffffffffffffffffffffffffffffff021916908373ffffffffffffffffffffffffffffffffffffffff1602179055507f6e3e6a6ee77679e0f7586f8ace716f85529261e58b7b00d3f1aa4265e56431b23342604051808373ffffffffffffffffffffffffffffffffffffffff1673ffffffffffffffffffffffffffffffffffffffff16815260200180602001838152602001828103825260088152602001807f4261736963466974000000000000000000000000000000000000000000000000815250602001935050505060405180910390a1565b6000809054906101000a900473ffffffffffffffffffffffffffffffffffffffff1681565b600060606040805190810160405280601c81526020017f19457468657265756d205369676e6564204d6573736167653a0a3332000000008152509050600081876040516020018083805190602001908083835b6020831015156107e457805182526020820191506020810190506020830392506107bf565b6001836020036101000a0380198251168184511680821785525050505050509050018281526020019250505060405160208183030381529060405280519060200120905060018185888860405160008152602001604052604051808581526020018460ff1660ff1681526020018381526020018281526020019450505050506020604051602081039080840390855afa158015610885573d6000803e3d6000fd5b5050506020604051035192505050949350505050565b600160009054906101000a900473ffffffffffffffffffffffffffffffffffffffff168156fea165627a7a7230582068879863ae01a3779879af02cc86b84a9931f3d31a3b63a658e99ea961c29bf60029",
  "source": "pragma solidity >=0.4.21 <0.6.0;\n\ncontract Activity {\n  \n  address public owner;\n  address public signedBy;\n  address public allowed_to_view;\n\n\n  event DataViewed(address accessor, bytes32 name, uint timestamp); // When data is read\n  event ActivitySigned(address signedBy, string name, uint timestamp); //When an activity is signed\n\n  modifier onlyAllowed() {\n      require(msg.sender == allowed_to_view, \n      \"You are not allowed to view this data.\");\n      _;\n  }\n\n  modifier onlyOwner() {\n      require(msg.sender == owner, \n      \"Only owner is allowed to view this data.\");\n      _;\n  }\n\n  constructor() public {\n    owner = msg.sender;\n    allowed_to_view = msg.sender;\n    emit ActivitySigned(msg.sender, \"BasicFit\", now);\n  }\n   \n  function viewData() public onlyAllowed returns(address,string memory) {\n    emit DataViewed(msg.sender, \"BasicFit\", now);\n    return (owner, \" went to the gym from 2 to 4 on Wednesday!\");\n  }\n  \n  function toBytes(address a) public pure returns (bytes memory) {\n    return abi.encodePacked(a);\n}\n\n  function signActivity() public {\n    signedBy = msg.sender;\n    emit ActivitySigned(msg.sender, \"BasicFit\", now);\n  }\n\n  function validateSignature(bytes32 message, bytes32 r, bytes32 s, uint8 v) public pure returns(address) {\n    bytes memory prefix = \"\\x19Ethereum Signed Message:\\n32\";\n    bytes32 prefixedHash = keccak256(abi.encodePacked(prefix, message));\n    return ecrecover(prefixedHash, v, r, s);\n  }\n\n}",
  "sourcePath": "C:/Projects/purplepension/purplepension-backend/contracts/Activity.sol",
  "compiler": {
    "name": "solc",
    "version": "0.5.0+commit.1d4f565a.Emscripten.clang"
  },
  "schemaVersion": "3.0.6",
  "updatedAt": "2019-04-14T00:30:25.601Z",
  "devdoc": {
    "methods": {}
  },
  "userdoc": {
    "methods": {}
  }
}